:10000000FCEF01F00000000000EF00F00000000035
:0A0010000000000000000000F3D71C
:10001C000F0E0C6E470E0D6E0D2EFED70C2EFCD750
:06002C00000000001200BC
:0A003200210E0D6E0D2EFED71200F8
:06003C00000000001200AC
:100042001CBE02D0839E01D0838E1CBC02D0839C36
:1000520001D0838C1CBA02D0839A01D0838A1CB847
:1000620002D0839801D0838815B002D0838601D054
:1000720083968384E2DF83941CB602D0839E01D0F0
:10008200838E1CB402D0839C01D0838C1CB202D01C
:10009200839A01D0838A1CB002D0839801D08388CE
:1000A20015B002D0838601D083968384C6DF839401
:0C00B20015A002D0B2DF01D0BBDF1200AD
:1000BE000FD0800E196E19D0C00E196E16D0940E78
:1000CE00196E13D0D40E196E10D0800E196E0DD07D
:1000DE001950010AEEE01950020AEEE01950030A17
:1000EE00EEE01950040AEEE0F0D71A04006E195033
:1000FE00002600C019F0158000C01CF09BDF159083
:0A010E001BC01CF097DF15801200E3
:0C011800159019C01CF091DF158012003A
:10012400480E1C6E8CDF186A1850070811E3B60ECF
:100134001824F66E040EF76E000EF722000EF86E09
:10014400000EF8220900F5CF19F0E4DF182AECD7E5
:10015400020E1C6E74DF16C019F017C01AF0010EDF
:060164001B6EABDF120070
:10016A00500E1C6E69DF186A1850070811E3AE0EAC
:10017A001824F66E040EF76E000EF722000EF86EC3
:10018A00000EF8220900F5CF19F0C1DF182AECD7C2
:10019A00020E1C6E51DF16C019F017C01AF0020EBB
:0601AA001B6E88DF12004D
:1001B000580E1C6E46DF186A1850070811E3A60E89
:1001C0001824F66E040EF76E000EF722000EF86E7D
:1001D000000EF8220900F5CF19F09EDF182AECD79F
:1001E000020E1C6E2EDF16C019F017C01AF0030E97
:0601F0001B6E65DF12002A
:1001F6000900F5CFE6FF0006FBE10106F9E1120072
:10020600400E1C6E1BDF186A1850070811E3960E85
:100216001824F66E040EF76E000EF722000EF86E26
:10022600000EF8220900F5CF19F073DF182AECD773
:10023600020E1C6E03DF16C019F017C01AF01B6AF7
:040246003BDF120088
:10024A00959495969598959A959C959E8394839660
:10025A00839E839C839A8398DCDEDBDEDADE838AE4
:10026A0083888384E6DE8394D4DE8384E2DE839407
:10027A00D0DE8384DEDE8394CCDE83988384D9DE69
:10028A008394C7DE8384D5DE8394839A838E8384A2
:10029A00D0DE8394BEDE839E83888384CADE839401
:1002AA0083988384C6DE8394B4DE8384C2DE839417
:1002BA0083888384BEDE8394ACDE83988384B9DE2C
:1002CA008394838E838C838A83888384B2DE839427
:0602DA00A0DE15801200F9
:1002E000780E1C6EAEDE186A1850070811E3860EF1
:1002F0001824F66E040EF76E000EF722000EF86E4C
:10030000000EF8220900F5CF19F006DF182AECD705
:10031000020E1C6E96DE16C019F017C01AF0070EFA
:060320001B6ECDDE120091
:10032600600E1C6E8BDE186A1850070811E3BE0EAD
:100336001824F66E040EF76E000EF722000EF86E05
:10034600000EF8220900F5CF19F0E3DE182AECD7E3
:10035600020E1C6E73DE16C019F017C01AF0040EDA
:060366001B6EAADE12006E
:10036C00680E1C6E68DE186A1850070811E38E0EB2
:10037C001824F66E040EF76E000EF722000EF86EBF
:10038C00000EF8220900F5CF19F0C0DE182AECD7C0
:10039C00020E1C6E50DE16C019F017C01AF0050EB6
:0603AC001B6E87DE12004B
:1003B200700E1C6E45DE186A1850070811E39E0E77
:1003C2001824F66E040EF76E000EF722000EF86E79
:1003D200000EF8220900F5CF19F09DDE182AECD79D
:1003E200020E1C6E2DDE16C019F017C01AF0060E92
:0603F2001B6E64DE120028
:1003F800956A836A26DF010E1C6E1FDE0C0E1C6ECA
:100408001CDE010E166E010E176EF9DE010E166E59
:10041800020E176E83DE010E166E030E176EA1DE36
:10042800010E166E050E176EBFDE010E166E060E55
:10043800176E75DF010E166E070E176E93DF010E2D
:10044800166E090E176EB1DF010E166E0A0E176EC4
:1004580066DF010E166E0B0E176E3EDF010E166E6E
:100468000D0E176ECCDE010E166E0E0E176E56DED2
:0E047800010E166E0F0E176E74DEC3D7FFD77F
:0804860000001F111712110004
:08048E0000001F0404041F001C
:080496000000111915131100FB
:08049E0000001E1111111E00E7
:0804A60000001111110A04000D
:0804AE0000000E1111110E00F7
:0804B6001D170E11111F1100AA
:0804BE0000000E11111F1100D6
:020000040030CA
:0E000000000E1F1EFF8381FF0FC00FE00F4098
:00000001FF
