:020000040000FA
:06000000F1EF00F0120018
:020006000000F8
:08000800946A826A95909590BC
:100010001200FADF00018A6B8B6B83B209D083A0D8
:10002000FED783B0FED700018A2B000E8B23F5D7B5
:1000300083A209D083A0FED783B0FED700018A2B0C
:10004000000E8B23F5D78B3504E28A516308000E2E
:100050008B5503E2EE0E826E27D00A0E106E116AE7
:100060008AC008F08BC009F010C00DF011C00EF06E
:10007000A5EC00F008C08CF08AC010F08BC011F025
:100080000A0E0D6E0E6A10C008F011C009F0A5EC42
:1000900000F004C010F005C011F010C08DF0000198
:0C00A0008C39F00B8D11826EB5D7120068
:0400AC00060EF66ED8
:1000B000000EF76E000EF86E00010900F550856F16
:1000C0000900F550866F03E1856701D03DD0090036
:1000D000F550806F0900F550816F0900F550826F6F
:1000E00009000900F550E96E0900F550EA6E0900B3
:1000F00009000900F550836F0900F550846F09006D
:100100000900F6CF87F0F7CF88F0F8CF89F080C0EC
:10011000F6FF81C0F7FF82C0F8FF0001835302E1C0
:10012000845307E00900F550EE6E8307F8E2840778
:10013000F9D787C0F6FF88C0F7FF89C0F8FF000134
:0A0140008507000E865BBFD7120092
:06014A00006A0EAEAEEFEC
:1001500000F00D6C0E1EE86A0E22001E09AEB6EF0E
:1001600000F0086C091EE86A0922001ECBEC00F0C2
:1001700009BEC6EF00F000AE000C086C091EE86A6C
:100180000922046C051EE86A0522000C00BEBDEFC2
:0601900000F00188FF0CE5
:0A019600056A046A100EE76ED890A7
:1001A00008360936043605360D50045C0E500558E5
:1001B00005E30D50045E0E50055A082AE72EF0D7CD
:0201C00012002B
:0E01C200000EF36E00EE00F0060E01D81200E3
:1001D000EA6002D0EE6AFCD7F350E9601200EE6AE2
:0201E000FCD74A
:0E01E20015EE00F025EE00F0F86A019C56ECD8
:0E01F00000F0FFEC00F009EC00F0FBD712006D
:0201FE001200ED
:00000001FF
