:100000006EEF00F00000000000EF00F000000000C4
:0A0010000000000000000000F3D71C
:0E001C00ACB202D00000FCD753C0ADFF120002
:0A002A00000E9EBA010E006E1200D7
:10003400AECF01F0ABA202D0AB98AB8801C000F008
:020044001200A8
:10004600526A4FC0E9FF50C0EAFFEECF51F051505F
:10005600000A0DE051C053F0DEDF522A52504F2401
:10006600E96E000E5020EA6EEECF51F0F0D7120086
:100076000900F5CFE6FF0006FBE10106F9E11200F3
:100086001C0E4A6E000E4B6E530E4C6E000E4D6EDD
:10009600340E3E6E000E3F6E000E406E000E416E38
:1000A6002A0E426E000E436E000E446E000E456E22
:1000B600FF0E466EFF0E476E000E486E000E496E2E
:1000C600AC8A900EAB6E948E949C9EAA03D0AECF53
:0600D60000F0FBD7120050
:1000DC00B7EC00F0670EAF6EAC94CFDF150E0B6E65
:1000EC004B0E0C6EBE0E0D6E0D2EFED70C2EFCD7CD
:1000FC000B2EFAD70000150E4F6E000E506E9DDFC2
:10010C000D0E536E85DF0A0E536E82DF320E4F6E6C
:10011C00000E506E92DF0D0E536E7ADF0A0E536E88
:10012C0077DF7DDF005206E07FDF00C04EF000C0BD
:08013C0053F06EDFF6D7FFD788
:10016E0010EE15F0290E006E010E016E440EF66EA5
:0E017E00010EF76E000EF86E3BEC00F0120062
:1001440043686567617374657320616F205541521C
:0D0154005420646F204D61746575732100A7
:0C0161005361696E646F3F204F4B21001A
:020000040030CA
:0D000100021F1EFF8381FF0FC00FE00F40A4
:00000001FF
