:1000000054EF02F00000000000EF00F000000000DC
:0A0010000000000000000000F3D71C
:10001C008282080E0C6EC90E0D6E0D2EFED70C2EA4
:10002C00FCD7000000008292020E0C6E8D0E0D6E3D
:10003C000D2EFED70C2EFCD7000000008282020E83
:10004C000C6E8D0E0D6E0D2EFED70C2EFCD70000F7
:10005C0000008292020E0C6E8D0E0D6E0D2EFED7D0
:10006C000C2EFCD7000000008282040E0C6E1C0EBD
:10007C000D6E0D2EFED70C2EFCD700008292020EB8
:10008C000C6E8D0E0D6E0D2EFED70C2EFCD70000B7
:10009C0000008282020E0C6E8D0E0D6E0D2EFED7A0
:1000AC000C2EFCD7000000008292020E0C6E8D0EFE
:1000BC000D6E0D2EFED70C2EFCD700000000828298
:1000CC00020E0C6E8D0E0D6E0D2EFED70C2EFCD767
:1000DC00000000008292020E0C6E8D0E0D6E0D2E25
:1000EC00FED70C2EFCD7000000008282040E0C6E92
:1000FC001C0E0D6E0D2EFED70C2EFCD7000082921E
:10010C00020E0C6E8D0E0D6E0D2EFED70C2EFCD726
:10011C00000000008282040E0C6E1C0E0D6E0D2E63
:10012C00FED70C2EFCD700008292020E0C6E8D0EA8
:10013C000D6E0D2EFED70C2EFCD700000000828217
:10014C00020E0C6E8D0E0D6E0D2EFED70C2EFCD7E6
:10015C00000000008292020E0C6E8D0E0D6E0D2EA4
:10016C00FED70C2EFCD7000000008282020E0C6E13
:10017C008D0E0D6E0D2EFED70C2EFCD70000000040
:10018C008292020E0C6E8D0E0D6E0D2EFED70C2E65
:10019C00FCD7000000008282040E0C6E1C0E0D6E4B
:1001AC000D2EFED70C2EFCD700008292020E0C6E88
:1001BC008D0E0D6E0D2EFED70C2EFCD70000000000
:1001CC008282020E0C6E8D0E0D6E0D2EFED70C2E35
:1001DC00FCD7000000008292020E0C6E8D0E0D6E8C
:1001EC000D2EFED70C2EFCD7000000008282040ED0
:1001FC000C6E1C0E0D6E0D2EFED70C2EFCD70000B7
:10020C008292020E0C6E8D0E0D6E0D2EFED70C2EE4
:10021C00FCD7000000008282020E0C6E8D0E0D6E5B
:10022C000D2EFED70C2EFCD7000000008292020E81
:10023C000C6E8D0E0D6E0D2EFED70C2EFCD7000005
:04024C00000012009C
:100250000900F5CFE6FF0006FBE10106F9E1120017
:100260008280070E0C6E3A0E0D6E0D2EFED70C2EF0
:10027000FCD700008290020E0C6E8D0E0D6E0D2EBE
:10028000FED70C2EFCD7000000008280040E0C6EFE
:100290001C0E0D6E0D2EFED70C2EFCD7000082908A
:1002A000020E0C6E8D0E0D6E0D2EFED70C2EFCD791
:1002B000000000008280020E0C6E8D0E0D6E0D2E61
:1002C000FED70C2EFCD7000000008290020E0C6EB0
:1002D0008D0E0D6E0D2EFED70C2EFCD700000000EB
:1002E0008280020E0C6E8D0E0D6E0D2EFED70C2E22
:1002F000FCD7000000008290020E0C6E8D0E0D6E79
:100300000D2EFED70C2EFCD7000000008280020EBE
:100310000C6E8D0E0D6E0D2EFED70C2EFCD7000030
:1003200000008290020E0C6E8D0E0D6E0D2EFED70B
:100330000C2EFCD7000000008280020E0C6E8D0E89
:100340000D6E0D2EFED70C2EFCD700000000829003
:10035000020E0C6E8D0E0D6E0D2EFED70C2EFCD7E0
:10036000000000008280020E0C6E8D0E0D6E0D2EB0
:10037000FED70C2EFCD7000000008290020E0C6EFF
:100380008D0E0D6E0D2EFED70C2EFCD7000000003A
:100390008280020E0C6E8D0E0D6E0D2EFED70C2E71
:1003A000FCD7000000008290020E0C6E8D0E0D6EC8
:1003B0000D2EFED70C2EFCD7000000008280040E0C
:1003C0000C6E1C0E0D6E0D2EFED70C2EFCD70000F1
:1003D0008290020E0C6E8D0E0D6E0D2EFED70C2E21
:1003E000FCD7000000008280020E0C6E8D0E0D6E98
:1003F0000D2EFED70C2EFCD7000000008290020EBE
:100400000C6E8D0E0D6E0D2EFED70C2EFCD700003F
:1004100000008280020E0C6E8D0E0D6E0D2EFED72A
:100420000C2EFCD7000000008290020E0C6E8D0E88
:100430000D6E0D2EFED70C2EFCD700000000828022
:10044000020E0C6E8D0E0D6E0D2EFED70C2EFCD7EF
:10045000000000008290020E0C6E8D0E0D6E0D2EAF
:10046000FED70C2EFCD7000000008280020E0C6E1E
:100470008D0E0D6E0D2EFED70C2EFCD70000000049
:1004800082900A0E0C6E580E0D6E0D2EFED70C2E9D
:06049000FCD70000120081
:100496000F0EC16E030E926E946A030E806E826A10
:0204A600120042
:1004A800F6DF80A004D080B202D0D6DE05D080B0BE
:0C04B80003D080A201D0AEDDF4D7FFD746
:020000040030CA
:0D000100021F1EFF8381FF0FC00FE00F40A4
:00000001FF
