:10000000D6EF00F00000000000EF00F0000000005C
:0A0010000000000000000000F3D71C
:10001C00210E826E330E0B6EBB0E0C6EDF0E0D6E50
:10002C000D2EFED70C2EFCD70B2EFAD7000000009D
:10003C00110E826E1F0E0B6E710E0C6E1E0E0D6E5F
:10004C000D2EFED70C2EFCD70B2EFAD70000090E66
:10005C00826E0B0E0B6E260E0C6E5D0E0D6E0D2E43
:10006C00FED70C2EFCD70B2EFAD7000000000C0E7E
:10007C00826E330E0B6EBB0E0C6EDF0E0D6E0D2EE4
:10008C00FED70C2EFCD70B2EFAD7000000000A0E60
:10009C00826E1F0E0B6E710E0C6E1E0E0D6E0D2EE3
:1000AC00FED70C2EFCD70B2EFAD70000090E826E51
:1000BC000B0E0B6E260E0C6E5D0E0D6E0D2EFED7FE
:0E00CC000C2EFCD70B2EFAD7000000001200FD
:1000DA000900F5CFE6FF0006FBE10106F9E112008F
:1000EA00210E826E520E0B6E2B0E0C6E000E0D6ED2
:1000FA000D2EFED70C2EFCD70B2EFAD70000110EB0
:10010A00826E1F0E0B6E710E0C6E1E0E0D6E0D2E74
:10011A00FED70C2EFCD70B2EFAD70000090E826EE2
:10012A000B0E0B6E260E0C6E5D0E0D6E0D2EFED78F
:10013A000C2EFCD70B2EFAD7000000000C0E826E94
:10014A00520E0B6E2B0E0C6E000E0D6E0D2EFED780
:10015A000C2EFCD70B2EFAD700000A0E826E1F0E49
:10016A000B6E710E0C6E1E0E0D6E0D2EFED70C2E22
:10017A00FCD70B2EFAD70000090E826E0B0E0B6EFF
:10018A00260E0C6E5D0E0D6E0D2EFED70C2EFCD7B4
:0A019A000B2EFAD70000000012003F
:0801A400800E946E826A1200C5
:1001AC00FBDF82BE02D09BDF01D032DFFAD7FFD754
:020000040030CA
:0D000100021F1EFF8381FF0FC00FE00F40A4
:00000001FF
