:10000000E6EF03F00000000000EF00F00000000049
:0A0010000000000000000000F3D71C
:10001C000F0E0C6E470E0D6E0D2EFED70C2EFCD750
:06002C00000000001200BC
:06003200000000001200B6
:0A003800210E0D6E0D2EFED71200F2
:1000420041BE02D0819E01D0818E41BC02D0819CF2
:1000520001D0818C41BA02D0819A01D0818A41B803
:1000620002D0819801D0818836B002D0818601D039
:1000720081968184DDDF819441B602D0819E01D0D8
:10008200818E41B402D0819C01D0818C41B202D0D8
:10009200819A01D0818A41B002D0819801D08188B1
:1000A20036B002D0818601D081968184C1DF8194ED
:0C00B20036A002D0B2DF01D0BEDF120089
:0C00BE0036903EC041F0BEDF36801200DC
:1000CA000FD0800E3E6E19D0C00E3E6E16D0940E22
:1000DA003E6E13D0D40E3E6E10D0800E3E6E0DD002
:1000EA003E50010AEEE03E50020AEEE03E50030A9C
:1000FA00EEE03E50040AEEE0F0D73F04006E3E50B8
:10010A00002600C03EF0368000C041F095DF3690F0
:0A011A0040C041F091DF3680120072
:10012400780E416E8CDF3B6A3B50070811E3390EB1
:100134003B24F66E090EF76E000EF722000EF86EE1
:10014400000EF8220900F5CF3EF0B7DF3B2AECD7CA
:10015400020E416E74DF39C03EF03AC03FF0070E24
:06016400406EB1DF120045
:10016A000FD0800E396E19D0C00E396E16D0940E8B
:10017A00396E13D0D40E396E10D0800E396E0DD070
:10018A003950010AEEE03950020AEEE03950030A0A
:10019A00EEE03950040AEEE0F0D73A04006E395026
:1001AA00002600C039F000C041F046DF36903D6AB3
:1001BA003D503B24E96E000E3C20EA6EEE520BE005
:1001CA003D503B24E96E000E3C20EA6EEECF3EF035
:0A01DA0071DF3D2AEDD736801200D8
:1001E400DCD1000E2B1802E1000E2A180EE1020EDB
:1001F400396E030E3A6E320E3B6E000E3C6EB3DF68
:10020400020E396E040E3A6E8BDF000E2B1802E1DB
:10021400010E2A180EE1020E396E040E3A6E300EEB
:100224003B6E000E3C6E9FDF020E396E060E3A6E78
:1002340077DF000E2B1802E1020E2A180EE1020EDF
:10024400396E060E3A6E340E3B6E000E3C6E8BDF3A
:10025400020E396E070E3A6E63DF000E2B1802E1B0
:10026400030E2A180EE1020E396E070E3A6E2C0E9A
:100274003B6E000E3C6E77DF020E396E030E3A6E53
:100284004FDF020E0B6E040E0C6EBA0E0D6E0D2EA9
:10029400FED70C2EFCD70B2EFAD700002A4A2B2AA5
:1002A400000E2B1802E1040E2A1802E12A6A2B6AB6
:1002B400020E0B6E040E0C6EBA0E0D6E0D2EFED7D2
:1002C4000C2EFCD70B2EFAD70000BAD1196A1A6A81
:1002D400176A186A156A166A1B6A1C6A1F6A206AFA
:1002E4001D6A1E6AADD1000E2B1802E1000E2A18F9
:1002F40002E1196A1A6A000E2B1802E1010E2A188B
:1003040002E1176A186A000E2B1802E1020E2A187D
:1003140002E1156A166A000E2B1802E1030E2A1870
:1003240002E11B6A1C6A8CD1000E2B1802E1000E3C
:100334002A1804E1010E196E000E1A6E000E2B1815
:1003440002E1010E2A1804E1010E176E000E186E68
:10035400000E2B1802E1020E2A1804E1010E156E9C
:10036400000E166E000E2B1802E1030E2A1804E18B
:10037400010E1B6E000E1C6E63D1000E2B1802E1E1
:10038400000E2A1804E1020E196E000E1A6E000EF9
:100394002B1802E1010E2A1804E1020E176E000E5A
:1003A400186E000E2B1802E1020E2A1804E1020E48
:1003B400156E000E166E000E2B1802E1030E2A189D
:1003C40004E1020E1B6E000E1C6E3AD1000E2B18B7
:1003D40002E1010E2A1804E1030E176E000E186ED6
:1003E400000E2B1802E1020E2A1804E1030E156E0A
:1003F400000E166E000E2B1802E1030E2A1804E1FB
:10040400030E1B6E000E1C6E1BD1000E2B1802E196
:10041400010E2A180DE1800E006E800E1A18005C81
:1004240002E11950010804E3040E176E000E186E61
:10043400000E2B1802E1020E2A1804E1040E156EB8
:10044400000E166E000E2B1802E1030E2A1804E1AA
:10045400040E1B6E000E1C6EF3D0000E2B1802E16E
:10046400010E2A180DE1800E006E800E1A18005C31
:1004740002E11950010804E3050E176E000E186E10
:10048400000E2B1802E1020E2A1804E1050E156E67
:10049400000E166E000E2B1802E1030E2A1804E15A
:1004A400050E1B6E000E1C6ECBD0000E2B1802E145
:1004B400010E2A180DE1800E006E800E1A18005CE1
:1004C40002E11950010804E3060E176E000E186EBF
:1004D400000E2B1802E1030E2A1804E1060E1B6E0F
:1004E400000E1C6EADD0000E2B1802E1010E2A186E
:1004F4000DE1800E006E800E1A18005C02E11950A6
:10050400010804E3070E176E000E186E000E2B1878
:1005140002E1030E2A1804E1070E1B6E000E1C6E86
:100524008FD0000E2B1802E1010E2A180DE1800E67
:10053400006E800E1A18005C02E11950010804E3F1
:10054400080E176E000E186E000E2B1802E1030E33
:100554002A1804E1080E1B6E000E1C6E71D0000EEA
:100564002B1802E1010E2A180DE1800E006E800E98
:100574001A18005C02E11950010804E3090E176E11
:10058400000E186E000E2B1802E1030E2A1804E167
:10059400090E1B6E000E1C6E53D0000E381802E1BB
:1005A400410E3718D8B41DD6000E381802E1440E97
:1005B4003718D8B48BD6000E381802E1420E37181B
:1005C400D8B491D6000E381802E1090E3718D8B401
:1005D400ABD6000E381802E10A0E3718D8B4CDD6BF
:1005E400000E381802E10C0E3718D8B4EFD6000EFE
:1005F400381802E1110E3718D8B407D7000E38188E
:1006040002E1120E3718D8B428D7000E381802E1C8
:10061400140E3718D8B449D7000E381802E1210E49
:100624003718D8B460D7000E381802E1220E3718F4
:10063400D8B477D7000E381802E1240E37188FE0AB
:020644001200A2
:10064600939493969398939A939C939E8194819670
:10065600819E819C819A8198DEDCDDDCDCDC818AEE
:1006660081888184E3DC8194D6DC8184DFDC81941B
:10067600D2DC8184DBDC8194CEDC81988184D6DC7B
:100686008194C9DC8184D2DC8194819A818E8184B3
:10069600CDDC8194C0DC819E81888184C7DC819415
:1006A60081988184C3DC8194B6DC8184BFDC81942B
:1006B60081888184BBDC8194AEDC81988184B6DC40
:1006C6008194818E818C818A81888184AFDC81943A
:0606D600A2DC36801200D8
:1006DC000900F5CFE6FF0006FBE10106F9E1120087
:1006EC00010E836E030E0C6E970E0D6E0D2EFED743
:1006FC000C2EFCD70000000083CF37F0000E386EB4
:10070C006BDD020E836E030E0C6E970E0D6E0D2EAE
:10071C00FED70C2EFCD70000000083CF37F0000E64
:10072C00386E5ADD040E836E030E0C6E970E0D6E32
:10073C000D2EFED70C2EFCD70000000083CF37F017
:08074C00000E386E49DD1200B9
:10075400000E1E1802E10A0E1D1835E11D6A1E6AFC
:100764001F4A202A000E201802E1060E1F182BE152
:100774001F6A206A1B4A1C2A000E1C1802E10A0E7A
:100784001B1821E11B6A1C6A154A162A000E16184A
:1007940002E1060E151817E1156A166A174A182A97
:1007A400000E181802E10A0E17180DE1800E1A182F
:1007B400006E800E005C02E1020E195C04E2176A0E
:0807C400186A194A1A2A1200F2
:1007CC00A1EC04F0FF0EC16E936A816A780E956EEF
:1007DC00836A33DF010E416E2EDC0C0E416E2BDC76
:1007EC00020E396E030E3A6E97DC010E396E030E53
:1007FC003A6E2EC03BF02FC03CF0B1DC000E1A1844
:10080C0002E1020E19182EE1000E181802E1030E77
:10081C00171828E1000E161802E1050E151822E132
:10082C00000E1C1802E1090E1B181CE1000E20180A
:10083C0002E1050E1F1816E1000E1E1802E1090E4A
:10084C001D1810E1196A1A6A176A186A156A166A6D
:10085C001B6A1C6A1F6A206A1D6A1E6AFF0E1D6EC7
:10086C00FF0E1E6E0B0E0B6E260E0C6E5D0E0D6EBD
:10087C000D2EFED70C2EFCD70B2EFAD70000000045
:10088C001D4A1E2A61DF2CDF060E2E24E16E000E9F
:10089C002F20E26E300E1F24006E00C0E6FF070E04
:1008AC002E24E16E000E2F20E26E300E1D24006E01
:1008BC0000C0E6FF030E2E24E16E000E2F20E26E28
:1008CC00300E1524006E00C0E6FF040E2E24E16EDF
:1008DC00000E2F20E26E300E1B24006E00C0E6FFCF
:1008EC00300E1924006E2EC0E1FF2FC0E2FF00C0B5
:1008FC00E6FF010E2E24E16E000E2F20E26E300E6C
:0C090C001724006E00C0E6FF70D7FFD774
:1009420010EE15F0210E006E010E016E180EF66EFD
:0E095200090EF76E000EF86E6EEC03F0120048
:020918000000DD
:02091A000000DB
:02091C000000D9
:02091E000000D7
:020920000000D5
:020922000000D3
:0909240030303A30303A30300036
:02092D000000C8
:02092F002000A6
:020931002100A3
:020933002000A2
:020935002000A0
:0209370020009E
:08093900040E1504040404007F
:020000040030CA
:0E000000000E1F1EFF8381FF0FC00FE00F4098
:00000001FF
