:10000000F5EF00F00000000000EF00F0000000003D
:0A0010000000000000000000F3D71C
:06001C00000000001200CC
:100022000F0E0C6E470E0D6E0D2EFED70C2EFCD74A
:06003200000000001200B6
:0A003800210E0D6E0D2EFED71200F2
:100042002DBE02D0839E01D0838E2DBC02D0839C14
:1000520001D0838C2DBA02D0839A01D0838A2DB825
:1000620002D0839801D0838826B002D0838601D043
:1000720083968384D2DF83942DB602D0839E01D0EF
:10008200838E2DB402D0839C01D0838C2DB202D0FA
:10009200839A01D0838A2DB002D0839801D08388BD
:1000A20026B002D0838601D083968384B6DF839400
:0C00B20026A002D0B5DF01D0BEDF120096
:0C00BE0026902CC02DF0BEDF2680120022
:1000CA000900F5CFE6FF0006FBE10106F9E112009F
:1000DA00959495969598959A959C959E83948396D2
:1000EA00839E839C839A839897DF96DF95DF838A22
:1000FA00838883848EDF83948FDF83848ADF83946B
:10010A008BDF838486DF839487DF8398838481DF10
:10011A00839482DF83847DDF8394839A838E8384AE
:10012A0078DF839479DF839E8388838472DF839464
:10013A00839883846EDF83946FDF83846ADF83947A
:10014A008388838466DF839467DF8398838461DF8F
:10015A008394838E838C838A838883845ADF8394EF
:06016A005BDF268012009D
:100170000FD0800E276E19D0C00E276E16D0940EA9
:10018000276E13D0D40E276E10D0800E276E0DD0A0
:100190002750010AEEE02750020AEEE02750030A3A
:1001A000EEE02750040AEEE0F0D72804006E275056
:1001B000002600C027F000C02DF043DF26902B6AF8
:1001C0002B502924E96E000E2A20EA6EEE520BE035
:1001D0002B502924E96E000E2A20EA6EEECF2CF077
:0A01E0006EDF2B2AEDD726801200F7
:1001EA003CEC01F0956A836A73DF010E2D6E24DF01
:1001FA000C0E2D6E21DF010E276E030E286E150ED2
:10020A00296E000E2A6EAFDF0B0E0B6E260E0C6ED9
:10021A005D0E0D6E0D2EFED70C2EFCD70B2EFAD7C7
:10022A0000000000010E2D6E07DF010E276E030E7F
:10023A00286E1F0E296E000E2A6E95DF0B0E0B6EAE
:10024A00260E0C6E5D0E0D6E0D2EFED70C2EFCD7F3
:0C025A000B2EFAD700000000CED7FFD713
:1002780010EE15F0110E006E010E016E660EF66E90
:0E028800020EF76E000EF86E65EC00F012002C
:0A0266004672616E636973636F00F6
:070270004D61746575730018
:020000040030CA
:0E000000000E1F1EFF8381FF0FC00FE00F4098
:00000001FF
