:020000040000FA
:060000009EEF05F0120066
:020006000000F8
:080008000F0EC16E936A946AA9
:10001000956A928092829284928692881200D9CFB9
:10002000E6FFE1CFD9FF040EE126DE6ADE6ADE6A72
:10003000DD6ADD52DD52D9CFE9FFDACFEAFFD89091
:10004000030EEB50000A08E6300EEE5CF20EEE589E
:10005000000EEE58000EEE580FE280AC03D0F36AAB
:10006000F46A22D0D9CFE9FFDACFEAFFEE2A000EF8
:10007000EE22EE22EE22DFD7FD0EDBCFE9FFFE0EF1
:10008000DBCFEAFFEECF14F0EFCF15F0010E142610
:10009000000E1522FD0EDBCFE9FFFE0EDBCFEAFFDF
:1000A00014C0EEFF15C0EDFF040EE15C02E2E16A50
:1000B000E552E16EE552E7CFD9FF1200D9CFE6FF56
:1000C000E1CFD9FF580EE126DE6ADD6A020EDB6A57
:1000D000030EDB6A040EDB6A050EDB6A060EDB6AC2
:1000E000070EDB6A080EDB6A090EDB6A0A0EDB6AA2
:1000F0000B0EDB6A0C0EDB6A0D0EDB6A010EF36E73
:100100000E0EF3CFDBFF0F0EDB6A100EDB6A110E53
:10011000DB6A120EDB6A130EDB6A010EF36E140E3D
:10012000F3CFDBFF150EDB6A160EDB6A170EDB6AF8
:10013000180EDB6A190EDB6A1A0EDB6A1B0EDB6A0D
:10014000010EF36E1C0EF3CFDBFF1D0EDB6A010EFA
:10015000F36E1E0EF3CFDBFF1F0EDB6A200EDB6A91
:10016000210EDB6A010EF36E220EF3CFDBFF230EAE
:10017000DB6A240EDB6A250EDB6A260EDB6A270E9D
:10018000DB6A280EDB6A290EDB6A010EF36E2A0E8B
:10019000F3CFDBFF2B0EDB6A2C0EDB6A2D0EDB6A46
:1001A000010EF36E2E0EF3CFDBFF2F0EDB6A300E47
:1001B000DB6A310EDB6A010EF36E320EF3CFDBFF2A
:1001C000330EDB6A010EF36E340EF3CFDBFF350E18
:1001D000DB6A360EDB6A370EDB6A380EDB6A390EF5
:1001E000DB6A010EF36E3A0EF3CFDBFF3B0EDB6AE8
:1001F000010EF36E3C0EF3CFDBFF3D0EDB6A010E0A
:10020000F36E3E0EF3CFDBFF3F0EDB6A010EF36EA3
:10021000400EF3CFDBFF410EDB6A420EDB6A430E7A
:10022000DB6A440EDB6A450EDB6A460EDB6A470E6C
:10023000DB6A010EF36E480EF3CFDBFF490EDB6A7B
:100240004A0EDB6A4B0EDB6A4C0EDB6A4D0EDB6A34
:10025000010EF36E4E0EF3CFDBFF4F0EDB6AD9CFEC
:1002600014F0DACF15F0080E086E096AFD0EDBCF28
:100270000DF0FE0EDBCF0EF0FCEC04F01450062463
:10028000E96E15500720EA6E560EEECFDBFF570ED3
:10029000EDCFDBFFD9CF14F0DACF15F0080E086EE2
:1002A000096AFD0EDBCF0DF0FE0EDBCF0EF0FCEC8D
:1002B00004F014500624E96E15500720EA6E020E71
:1002C000E926000EEA22540EEECFDBFF550EEDCFED
:1002D000DBFFD9CF14F0DACF15F0080E086E096AEB
:1002E000FD0EDBCF0DF0FE0EDBCF0EF0FCEC04F0CC
:1002F00014500624E96E15500720EA6E040EE92614
:10030000000EEA22520EEECFDBFF530EEDCFDBFFE5
:10031000D9CF14F0DACF15F0080E086E096AFD0E79
:10032000DBCF0DF0FE0EDBCF0EF0FCEC04F0145032
:100330000624E96E15500720EA6E060EE926000E27
:10034000EA22500EEECFDBFF510EEDCFDBFFD9508E
:10035000500F146EDACF15F014C0F3FF15C0F4FF80
:10036000580EE15C03E200D0E16AE552E16EE5522D
:10037000E7CFD9FF1200D9CFE6FFE1CFD9FF020EB8
:10038000E126FD0EDBCF14F0FE0EDBCF15F00A0EDA
:100390000D6E0E6A14C008F015C009F0D6EC04F01A
:1003A00004C014F005C015F014C0E6FF15C0E6FF48
:1003B00085DEE552E552F3CFDEFFF4CFDDFFDECF81
:1003C000E9FFDDCFEAFFEF50E8B08A80E8A08A902D
:1003D000DECFE9FFDDCFEAFF020EE926000EEA22BA
:1003E000EF50E8B08A82E8A08A92DECFE9FFDDCF45
:1003F000EAFF040EE926000EEA22EF50E8B08A84F4
:10040000E8A08A94DECFE9FFDDCFEAFF060EE926F9
:10041000000EEA22EF50E8B08A86E8A08A96FD0E28
:10042000DBCF14F0FE0EDBCF15F00A0E0D6E0E6A58
:1004300014C008F015C009F0D6EC04F008C014F0A0
:1004400009C015F014C0E6FF15C0E6FF37DEE5521F
:10045000E552F3CFDEFFF4CFDDFFDECFE9FFDDCFE6
:10046000EAFFEF50E8B08A88E8A08A98DECFE9FF7B
:10047000DDCFEAFF020EE926000EEA22EF50E8B0D7
:100480008A8AE8A08A9ADECFE9FFDDCFEAFF040E70
:10049000E926000EEA22EF50E8B08A8CE8A08A9C98
:1004A000DECFE9FFDDCFEAFF060EE926000EEA22E5
:1004B000EF50E8B08A8EE8A08A9EFB0EDBCF14F0E6
:1004C000FC0EDBCF15F00A0E0D6E0E6A14C008F09C
:1004D00015C009F0D6EC04F004C014F005C015F006
:1004E00014C0E6FF15C0E6FFE9DDE552E552F3CFA3
:1004F000DEFFF4CFDDFFDECFE9FFDDCFEAFFEF5017
:10050000E8B08B80E8A08B90DECFE9FFDDCFEAFF7B
:10051000020EE926000EEA22EF50E8B08B82E8A036
:100520008B92DECFE9FFDDCFEAFF040EE926000E55
:10053000EA22EF50E8B08B84E8A08B94DECFE9FF8D
:10054000DDCFEAFF060EE926000EEA22EF50E8B002
:100550008B86E8A08B96FB0EDBCF14F0FC0EDBCF76
:1005600015F00A0E0D6E0E6A14C008F015C009F0E1
:10057000D6EC04F008C014F009C015F014C0E6FF72
:1005800015C0E6FF9BDDE552E552F3CFDEFFF4CF69
:10059000DDFFDECFE9FFDDCFEAFFEF50E8B08B886B
:1005A000E8A08B98DECFE9FFDDCFEAFF020EE92657
:1005B000000EEA22EF50E8B08B8AE8A08B9ADECFDB
:1005C000E9FFDDCFEAFF040EE926000EEA22EF5034
:1005D000E8B08B8CE8A08B9CDECFE9FFDDCFEAFF93
:1005E000060EE926000EEA22EF50E8B08B8EE8A056
:1005F0008B9EF90EDBCF14F0FA0EDBCF15F00A0E4E
:100600000D6E0E6A14C008F015C009F0D6EC04F0A7
:1006100004C014F005C015F014C0E6FF15C0E6FFD5
:100620004DDDE552E552F3CFDEFFF4CFDDFFDECF47
:10063000E9FFDDCFEAFFEF50E8B08C80E8A08C90B6
:10064000DECFE9FFDDCFEAFF020EE926000EEA2247
:10065000EF50E8B08C82E8A08C92DECFE9FFDDCFCE
:10066000EAFF040EE926000EEA22EF50E8B08C847F
:10067000E8A08C94DECFE9FFDDCFEAFF060EE92685
:10068000000EEA22EF50E8B08C86E8A08C96F90EB6
:10069000DBCF14F0FA0EDBCF15F00A0E0D6E0E6AEA
:1006A00014C008F015C009F0D6EC04F008C014F02E
:1006B00009C015F014C0E6FF15C0E6FFFFDCE552E7
:1006C000E552F3CFDEFFF4CFDDFFDECFE9FFDDCF74
:1006D000EAFFEF50E8B08C88E8A08C98DECFE9FF05
:1006E000DDCFEAFF020EE926000EEA22EF50E8B065
:1006F0008C8AE8A08C9ADECFE9FFDDCFEAFF040EFA
:10070000E926000EEA22EF50E8B08C8CE8A08C9C21
:10071000DECFE9FFDDCFEAFF060EE926000EEA2272
:10072000EF50E8B08C8EE8A08C9E020EE15C02E2F5
:10073000E16AE552E16EE552E7CFD9FF1200D9CF69
:10074000E6FFE1CFD9FF020EE126DE6ADD6ADECFE9
:1007500014F0DDCF15F0D890155004E6480E145C67
:10076000710E155805E2DF2A010E01E3DB2AEFD7EF
:10077000020EE15C02E2E16AE552E16EE552E7CF8A
:10078000D9FF1200D9CFE6FFE1CFD9FF060EE1264F
:10079000DE6ADD6A020EDB6A030EDB6A040EDB6AC8
:1007A000050EDB6A31DC040EDBCFE6FF050EDBCF86
:1007B000E6FF020EDBCFE6FF030EDBCFE6FFDECF68
:1007C000E6FFDDCFE6FFD7DD146E060EE15E1450C6
:1007D00080AC8BD080B012D0B2DFDF2A010E01E3F3
:1007E000DB2ADECF14F0DDCF15F0153404E214500F
:1007F0003B08000E155402E2DE6ADD6A80B210D0BA
:100800009EDFDF06010E01E2DB06DECF14F0DDCF56
:1008100015F00001800E151403E03B0EDE6EDD6A5C
:1008200080B417D08CDF020EDB2A030E01E3DB2A33
:10083000020EDBCF14F0030EDBCF15F0153404E20B
:1008400014503B08000E155404E2020EDB6A030E3E
:10085000DB6A80B617D073DF020EDB06030E01E2FF
:10086000DB06020EDBCF14F0030EDBCF15F0000128
:10087000800E151407E03B0EF36E020EF3CFDBFF84
:10088000030EDB6A80B817D05ADF040EDB2A050E90
:1008900001E3DB2A040EDBCF14F0050EDBCF15F0ED
:1008A000153404E214501708000E155404E2040E27
:1008B000DB6A050EDB6A80BA17D041DF040EDB0667
:1008C000050E01E2DB06040EDBCF14F0050EDBCFD4
:1008D00015F00001800E151407E0170EF36E040EDC
:1008E000F3CFDBFF050EDB6A41D0D9CFE6FFDACFCD
:1008F000E6FF0FEC00F0E552E552DECF14F0DDCF5D
:1009000015F0153404E214503B08000E155407E2AC
:10091000DE6ADD6A020EDB2A030E01E3DB2A020E29
:10092000DBCF14F0030EDBCF15F0153404E21450C6
:100930003B08000E155409E2020EDB6A030EDB6A67
:10094000040EDB2A050E01E3DB2A040EDBCF14F0D4
:10095000050EDBCF15F0153404E214501708000E15
:10096000155404E2040EDB6A050EDB6A040EDBCFCD
:10097000E6FF050EDBCFE6FF020EDBCFE6FF030E40
:10098000DBCFE6FFDECFE6FFDDCFE6FFF4DC146E63
:10099000060EE15E14501CD7060EE15C02E2E16A2D
:0C09A000E552E16EE552E7CFD9FF1200EE
:0409AC00006A0EAE21
:1009B000DFEF04F00D6C0E1EE86A0E22001E09AE79
:1009C000E7EF04F0086C091EE86A0922001E78ECC3
:1009D00005F009BEF7EF04F000AE000C086C091E2C
:1009E000E86A0922046C051EE86A0522000C00BEB4
:1009F000EEEF04F00188FF0C09C013F008C012F0FC
:100A000008500D02F4CF07F0F3CF06F009500E02A4
:100A1000F4CF09F0F3CF08F00D02F3500726F4509D
:100A20000822E86A092212500E02F3500726F450F9
:100A30000822E86A09220EAE22EF05F01250085E85
:100A40001350095A13AE000C0D50085E0E50095A8F
:020A5000000C98
:0E0A5200060EF66E000EF76E000EF86E000136
:100A60000900F550856F0900F550866F03E1856731
:100A700001D03DD00900F550806F0900F550816F1D
:100A80000900F550826F09000900F550E96E090070
:100A9000F550EA6E090009000900F550836F09005E
:100AA000F550846F09000900F6CF87F0F7CF88F082
:100AB000F8CF89F080C0F6FF81C0F7FF82C0F8FF51
:100AC0000001835302E1845307E00900F550EE6E04
:100AD0008307F8E28407F9D787C0F6FF88C0F7FFDD
:100AE00089C0F8FF00018507000E865BBFD71200A2
:100AF000056A046A100EE76ED89008360936043687
:100B000005360D50045C0E50055805E30D50045E8B
:0C0B10000E50055A082AE72EF0D71200FC
:040B1C00000EF36E66
:100B200000EE00F0060E01D81200EA6002D0EE6A74
:0C0B3000FCD7F350E9601200EE6AFCD71D
:040B3C0015EE00F0C2
:100B400025EE00F0F86A019C29EC05F0ACEC05F00C
:080B5000C2EC03F0FBD7120018
:020B5800120089
:00000001FF
