:100000007EEF00F00000000000EF00F000000000B4
:0A0010000000000000000000F3D71C
:10001C008190300E0C6EA80E0D6E0D2EFED70C2E90
:10002C00FCD700008180050E0C6E470E0D6E0D2E58
:0C003C00FED70C2EFCD7000000001200C4
:1000480081902D0E0C6E260E0D6E0D2EFED70C2EE9
:10005800FCD700008180080E0C6EC90E0D6E0D2EA7
:0C006800FED70C2EFCD700000000120098
:100074000900F5CFE6FF0006FBE10106F9E11200F5
:100084008190310E0C6E120E0D6E0D2EFED70C2EBD
:10009400FCD700008180040E0C6EDD0E0D6E0D2E5B
:0C00A400FED70C2EFCD70000000012005C
:1000B0008180020E0C6E4B0E0D6E0D2EFED70C2E97
:1000C000FCD78190330E0C6EA50E0D6E0D2EFED753
:0600D0000C2EFCD712000B
:1000D6008190310E0C6EB90E0D6E0D2EFED70C2EC4
:1000E600FCD78180040E0C6E370E0D6E0D2EFED7DA
:0600F6000C2EFCD71200E5
:1000FC000F0EC16E0F0E926E936A0F0E806E816A98
:10010C0080A00AD080B408D080B606D080B804D0C5
:10011C0080B202D0C7DF2FD080A20AD080B408D022
:10012C0080B606D080B804D080B002D0CEDF23D009
:10013C0080A40AD080B608D080B806D080B004D095
:10014C0080B202D099DF17D080A60AD080B808D030
:10015C0080B006D080B204D080B402D059DF0BD06E
:10016C0080A809D080B007D080B205D080B403D06D
:0A017C0080B601D063DFC4D7FFD7BF
:020000040030CA
:0D000100021F1EFF8381FF0FC00FE00F40A4
:00000001FF
